:100000000C9463000C9440050C9419050C948B001F
:100010000C948B000C948B000C948B000C948B0034
:100020000C948B000C948B000C948B000C948B0024
:100030000C948B000C948B000C948B000C948B0014
:100040000C94CF040C948B000C949D040C947704B6
:100050000C948B000C948B000C948B000C948B00F4
:100060000C948B000C948B000000000024002700EF
:100070002A0000000000250028002B0000000008D6
:10008000000201000003040700000000000000005F
:10009000010204081020408001020408102001021F
:1000A000040810200000000023002600290004049A
:1000B0000404040404040202020202020303030310
:1000C00003036705060911241FBECFEFD8E0DEBF8A
:1000D000CDBF11E0A0E0B1E0EEEAFAE102C0059088
:1000E0000D92AA34B107D9F722E0AAE4B1E001C029
:1000F0001D92AF31B207E1F710E0C2E6D0E004C0D4
:100100002197FE010E942E09C136D107C9F70E942E
:1001100074060C944A0D0C940000E0915E01F0917D
:100120005F010190F081E02D682F8EE591E0099448
:10013000CF92DF92EF92FF920F931F93CF93DF93B3
:100140006C017A018B01C0E0D0E0CE15DF0589F0AB
:10015000D8016D918D01D601ED91FC910190F08156
:10016000E02DC6010995892B11F47E0102C021966C
:10017000ECCFC701DF91CF911F910F91FF90EF90CE
:10018000DF90CF900895FC01918D828D981761F0DA
:10019000828DDF01A80FB11D5D968C91928D9F5FBE
:1001A0009F73928F90E008958FEF9FEF0895FC0169
:1001B000918D828D981731F0828DE80FF11D858D1C
:1001C00090E008958FEF9FEF0895FC01918D228DAF
:1001D000892F90E0805C9F4F821B91098F73992734
:1001E00008958EE591E00E94E50021E0892B09F455
:1001F00020E0822F0895FC01848DDF01A80FB11D3E
:10020000A35ABF4F2C91848D90E001968F7399274C
:10021000848FA689B7892C93A089B1898C91806439
:100220008C93938D848D981306C00288F389E02DFA
:1002300080818F7D80830895EF92FF920F931F93AB
:10024000CF93DF93EC0181E0888F9B8D8C8D981389
:1002500005C0E889F989808185FD24C0F62E0B8DC3
:1002600010E00F5F1F4F0F731127E02E8C8DE812E7
:100270000CC00FB607FCFACFE889F989808185FFA9
:10028000F5CFCE010E94FB00F1CF8B8DFE01E80F70
:10029000F11DE35AFF4FF0820B8FEA89FB898081C1
:1002A000806207C0EE89FF896083E889F9898081CF
:1002B0008064808381E090E0DF91CF911F910F9166
:1002C000FF90EF900895CF93DF93EC01888D882302
:1002D000C9F0EA89FB89808185FD05C0A889B989B3
:1002E0008C9186FD0FC00FB607FCF5CF808185FF8E
:1002F000F2CFA889B9898C9185FFEDCFCE010E94FC
:10030000FB00E7CFDF91CF91089580E090E0892B4B
:1003100029F00E94F10081110C940000089590E0F2
:10032000FC01E458FF4F3491FC01E057FF4F24914A
:10033000FC01E255FF4FE491EE2309F43BC0332367
:1003400039F1333091F038F43130A9F0323001F521
:1003500084B58F7D12C0373091F03830A1F0343041
:10036000B9F4809180008F7D03C0809180008F77E9
:10037000809380000DC084B58F7784BD09C08091C3
:10038000B0008F7703C08091B0008F7D8093B00064
:10039000F0E0EE0FFF1FEE58FF4FA591B4918FB71D
:1003A000F894EC91611103C020952E2301C02E2BEF
:1003B0002C938FBF0895CF93DF9390E0FC01E0571B
:1003C000FF4F2491FC01E255FF4F8491882361F196
:1003D00090E0880F991FFC01E859FF4FC591D49117
:1003E000FC01EE58FF4FA591B491611109C09FB770
:1003F000F8948881209582238883EC912E230BC06A
:10040000623061F49FB7F8943881822F80958323FE
:100410008883EC912E2B2C939FBF06C08FB7F89446
:10042000E8812E2B28838FBFDF91CF9108951F93F2
:10043000CF93DF93182FEB0161E00E94DB0120973F
:1004400011F460E004C0CF3FD10539F461E0812FA1
:10045000DF91CF911F910C948F01E12FF0E0E458D0
:10046000FF4FE491E330F9F048F4E130B9F0E230C5
:10047000A1F584B5806284BDC8BD34C0E730E9F021
:10048000E83019F1E43049F5809180008062809372
:100490008000D0938B00C0938A0024C084B580680C
:1004A00084BDC7BD1FC0809180008068809380009C
:1004B000D0938900C093880015C08091B0008068F7
:1004C0008093B000C093B3000DC08091B0008062F3
:1004D0008093B000C093B40005C0C038D1050CF0C3
:1004E000B5CFAFCFDF91CF911F9108953FB7F8946B
:1004F00080914B0190914C01A0914D01B0914E0122
:1005000026B5A89B05C02F3F19F00196A11DB11D6E
:100510003FBFBA2FA92F982F8827820F911DA11DA9
:10052000B11DBC01CD0142E0660F771F881F991FE6
:100530004A95D1F708958F929F92AF92BF92CF9232
:10054000DF92EF92FF926B017C010E9476024B01D9
:100550005C01C114D104E104F104F1F00E947602BF
:10056000DC01CB0188199909AA09BB09883E93408F
:10057000A105B10570F321E0C21AD108E108F10824
:1005800088EE880E83E0981EA11CB11CC114D10412
:10059000E104F10419F7DDCFFF90EF90DF90CF90E9
:1005A000BF90AF909F908F90089508951F93CF9321
:1005B000DF93EC01162F8F818617A8F58F818117A5
:1005C00008F03FC0288539852115310521F4682FB1
:1005D00070E08C8106C02130310531F4682F70E065
:1005E0008D810E94170202C01F8210E06E8170E0B0
:1005F00080E090E00E949B028F818F5F8F83DECF2F
:10060000288539852115310591F4682F70E08C819A
:100610000E9417026E8170E080E090E00E949B02D1
:100620008F8181508F838F81181750F30AC021303A
:10063000310521F4682F70E08D81EACF1F8210E030
:10064000E9CFDF91CF911F910895DC01ED91FD91EC
:100650008081ED91FD919081ED91FD916C916370A0
:100660008E2309F064609F2309F06860E2E4F3E000
:10067000E60FF11D659565956D936D917D918D9159
:100680009D91099423C01AC012C016C010C01EC08C
:1006900009C014C013C006C019C009C00DC007C0EE
:1006A0000DC014C062507040804090400BC061503B
:1006B00070408040904006C06E5F01C06F5F7F4F0A
:1006C0008F4F9F4F9E938E937E936E93089580914C
:1006D000FD019091FE010C9425038091FB01909106
:1006E000FC010C94250340E062E070E00C94780378
:1006F000FF920F931F93CF93DF938B01642FFC0125
:100700002085318502171307C1F0F42EEC0160E05B
:100710000230110561F40E94D60219870887CE01C4
:10072000DF91CF911F910F91FF900C9473030E9462
:10073000D602198708876F2DCE01DF91CF911F91C7
:100740000F91FF900C94D602CF93DF93EC0140E021
:1007500062E070E00E9478038A81882331F060E0D3
:100760008B81DF91CF910C948F01DF91CF91089510
:10077000009769F0FC0101900020E9F73197AF0183
:10078000481B590BBC018EE591E00C94980080E069
:1007900090E008958F929F92AF92BF920F931F9314
:1007A000CF93DF93CDB7DEB7A1970FB6F894DEBF36
:1007B0000FBECDBF19A2423008F44AE08E010F5D92
:1007C0001F4F842E912CA12CB12CA50194010E94C5
:1007D0000C09E62FB901CA0101501109EA3014F4DD
:1007E000E05D01C0E95CD801EC93232B242B252B81
:1007F00061F7C8010E94B803A1960FB6F894DEBF56
:100800000FBECDBFDF91CF911F910F91BF90AF90E1
:100810009F908F900895CF92DF92EF92FF92CF93A7
:10082000DF9397FF19C06B017C018DE20E948D0060
:10083000EC0166277727CB016C197D098E099F098A
:100840004AE00E94CA038C0F9D1FDF91CF91FF9059
:10085000EF90DF90CF9008954AE0DF91CF91FF9025
:10086000EF90DF90CF900C94CA030E94D10BEF92CF
:10087000FF920F931F93CF93DF93EC017B018A01CB
:1008800088819981009729F02A813B8124173507B7
:10089000F8F4B8016F5F7F4F0E94070B009759F083
:1008A000998388831B830A832C813D81232B81F4C8
:1008B000FC0110820DC088819981009711F00E947F
:1008C0006F0A198218821D821C821B821A8207C03D
:1008D0001D830C83B701888199810E94E80BCE01AA
:1008E000DF91CF911F910F91FF90EF9008951F928C
:1008F0000F920FB60F9211242F933F934F935F9354
:100900006F937F938F939F93AF93BF93EF93FF93D7
:100910008EE591E00E94FB00FF91EF91BF91AF91B6
:100920009F918F917F916F915F914F913F912F9107
:100930000F900FBE0F901F9018951F920F920FB639
:100940000F9211242F938F939F93EF93FF93E09136
:100950006E01F0916F018081E0917401F091750159
:1009600082FD12C09081809177018F5F8F732091FB
:100970007801821751F0E0917701F0E0E25AFE4FE2
:10098000958F8093770101C08081FF91EF919F91B6
:100990008F912F910F900FBE0F901F9018951F925F
:1009A0000F920FB60F9211242F933F938F939F9323
:1009B000AF93BF938091540190915501A09156013E
:1009C000B091570130914A0123E0230F2D3720F4D5
:1009D0000196A11DB11D05C026E8230F0296A11D99
:1009E000B11D20934A018093540190935501A09327
:1009F0005601B093570180914B0190914C01A09109
:100A00004D01B0914E010196A11DB11D80934B0186
:100A100090934C01A0934D01B0934E01BF91AF91C3
:100A20009F918F913F912F910F900FBE0F901F902C
:100A300018951F920F920FB60F9211242F933F9388
:100A40004F935F936F937F938F939F93AF93BF93D6
:100A5000EF93FF93E0910201F09103010995FF915B
:100A6000EF91BF91AF919F918F917F916F915F9126
:100A70004F913F912F910F900FBE0F901F9018959F
:100A80001F920F920FB60F9211242F933F934F9303
:100A90005F936F937F938F939F93AF93BF93EF93E6
:100AA000FF93E0910001F09101010995FF91EF9111
:100AB000BF91AF919F918F917F916F915F914F9176
:100AC0003F912F910F900FBE0F901F901895CF93CD
:100AD000DF93109261011092600188EE93E0A0E034
:100AE000B0E08093620190936301A0936401B0939E
:100AF00065018EE091E090935F0180935E0185EC4B
:100B000090E090936B0180936A0184EC90E0909365
:100B10006D0180936C0180EC90E090936F01809365
:100B20006E0181EC90E0909371018093700182ECF2
:100B300090E0909373018093720186EC90E0909323
:100B400075018093740110927701109278011092D0
:100B5000790110927A018EE191E0909312028093D4
:100B6000110281E08093130288E0809314028BE0ED
:100B70008093150285E08093160283E0809317022C
:100B800061E08BE00E94DB0161E0809116020E942F
:100B9000DB0161E0809114020E94DB0160E070E003
:100BA000809115020E94170260E070E080911602A9
:100BB0000E94170261E0809114020E948F0184E27A
:100BC00091E090931202809311021092180282E039
:100BD00090E090931A028093190262E083E00E94F1
:100BE000DB0162E082E00E94DB01E1EBF0E0E491F6
:100BF000F0E0EE0FFF1FEC55FF4FA591B491B093BD
:100C00000602A0930502E3E9F0E0849180930902D3
:100C1000E0EBF0E0E491F0E0EE0FFF1FEC55FF4F4A
:100C2000C591D491D0930802C0930702E2E9F0E0A5
:100C3000E491E0930A0210920C0210920D021092BD
:100C40000E0210920F02EBE3FFE13197F1F7EC9106
:100C5000E82381E009F480E0288190910A02922340
:100C600009F0826025E032E080930B023093FE01B0
:100C70002093FD0187E693E09093030180930201A6
:100C800080916900837F846080936900E99A81E0A4
:100C9000809310023093FC012093FB018DE693E0DA
:100CA0009093010180930001809169008C7F8160A5
:100CB00080936900E89A82E080931002109200020B
:100CC0001092FF011092020210920102109204028F
:100CD0001092030241E050E066E271E08FEF91E094
:100CE000DF91CF910C943704789484B5826084BDF1
:100CF00084B5816084BD85B5826085BD85B5816020
:100D000085BD80916E00816080936E00109281009D
:100D10008091810082608093810080918100816058
:100D20008093810080918000816080938000809119
:100D3000B10084608093B1008091B00081608093A5
:100D4000B00080917A00846080937A0080917A006C
:100D5000826080937A0080917A00816080937A002B
:100D600080917A00806880937A001092C100E091AF
:100D70006E01F0916F0182E08083E0916A01F09151
:100D80006B011082E0916C01F0916D0180E1808334
:100D900010927601E0917201F091730186E08083F8
:100DA000E0917001F0917101808180618083E09118
:100DB0007001F0917101808188608083E091700101
:100DC000F0917101808180688083E0917001F091E1
:100DD000710180818F7D808361E084E00E94DB016E
:100DE00060E084E00E948F0162E370E080E090E0C8
:100DF0000E949B0261E084E00E948F0188E291E002
:100E00000E94B8038EE291E00E94B8033324339429
:100E100001E511E080E4282E8EE591E00E94E500D6
:100E200020915D01181619061CF4222309F4C2C191
:100E3000222381F0F80101900020E9F73197AF01FA
:100E40004155514061E571E08FEF91E00E94370418
:100E500010925D018091030290910402892B09F4A4
:100E6000A6C1C091FF01D091000261E371E0CE0103
:100E70000E94DF0B892B61F54FEF60E070E081E1AC
:100E800092E00E94780360E177E280E090E00E94C7
:100E90009B0281E192E00E947303F89410920C028D
:100EA00010920D0210920E0210920F02789483E3BA
:100EB00091E00E94B8038EE291E00E94B80341E005
:100EC00050E066E271E08FEF91E00E9437046FC15D
:100ED00069E371E0CE010E94DF0B892B09F05CC150
:100EE00080911002823030F4F89485E092E00E9404
:100EF000250301C0F89460910C0270910D0280915D
:100F00000E0290910F0278940E94F60B20E030E0E0
:100F100040E85AE30E94550C9B01AC010E94350940
:100F20006B017C018FB7F89480905401909055012B
:100F3000A0905601B09057018FBF80915C01811144
:100F40001FC020E030E04CE852E4C701B6010E9427
:100F5000EF0B87FF08C046E961E070E081E192E0B5
:100F60000E94780319C020E030E04CE852E4C70149
:100F7000B6010E94D00987FD0FC030925C010CC001
:100F800081E192E00E94730341E050E066E271E08B
:100F90008FEF91E00E9437048FB7F894409154018D
:100FA0005091550160915601709157018FBF80910A
:100FB000580190915901A0915A01B0915B018C594F
:100FC0009F4FAF4FBF4F84179507A607B70708F08D
:100FD000EEC020927C0080917A00806480937A0039
:100FE00080917A0086FDFCCFC091780080917900D5
:100FF000D0E0D82B2FB7F8948091540190915501EF
:10100000A0915601B09157012FBF80935801909342
:101010005901A0935A01B0935B01A7019601C70142
:10102000B6010E94D509882319F08BE391E01AC01C
:1010300026013701E89477F82FEF3FEF4FE75FE79E
:10104000C301B2010E94D50981110FC02FEF3FEFFC
:101050004FE75FE7C301B2010E94EF0B18162CF4B3
:101060008FE391E00E94B80372C02FEF3FEF4FE78C
:101070005FE4C701B6010E94D00918161CF483E48E
:1010800091E0F0CF2FEF3FEF4FE75FECC701B601E4
:101090000E94EF0B87FDF3CF20E030E0A901C701EC
:1010A000B6010E94EF0B87FF07C08DE20E948D0002
:1010B000F7FAF094F7F8F0942AE037ED43EA5BE3AF
:1010C000C701B6010E9435092B013C010E94A1090C
:1010D0006B017C010E94F40B9B01AC01C301B201C6
:1010E0000E9434092B013C014AE0C701B6010E946D
:1010F000CA038EE20E948D0020E030E040E251E41D
:10110000C301B2010E94550C6B017C010E94A10930
:101110002B01612C712C4AE0C301B2010E94CA0369
:10112000C301B2010E94F40B9B01AC01C701B601DF
:101130000E94340920E030E040E251E40E94550C66
:101140000E94A10980E090E04AE00E94CA0387E47F
:1011500091E00E94B803C501B4010E940B0487E42A
:1011600091E00E94B803BE01DD0F880B990B0E942D
:101170000B0487E491E00E94B803609158017091DC
:10118000590180915A0190915B010E940B048EE2FB
:1011900091E00E94B8030BC066E271E0CE010E94AC
:1011A000DF0B892B21F481E192E00E9473030E94FE
:1011B000850132CE8EE591E00E94C30090915001EE
:1011C0009923F1F0E0914F018E3379F0AE2FB0E02A
:1011D000AF5ABE4F8C93EF5FE33018F4E0934F01AA
:1011E0001BCE82E080934F0117CEF0E0EF5AFE4F06
:1011F00010821092500110924F0130925D010CCE7E
:101200008C3309F009CE3092500106CE8091FF0157
:10121000909100020C946F0AA1E21A2EAA1BBB1B2C
:10122000FD010DC0AA1FBB1FEE1FFF1FA217B307B2
:10123000E407F50720F0A21BB30BE40BF50B661FC8
:10124000771F881F991F1A9469F76095709580958C
:1012500090959B01AC01BD01CF010895EE0FFF1FDA
:101260000590F491E02D09945058BB27AA270E94BD
:101270004C090C94D90C0E94CB0C38F00E94D20C73
:1012800020F039F49F3F19F426F40C94C80C0EF4A6
:10129000E095E7FB0C94C20CE92F0E94EA0C58F38E
:1012A000BA17620773078407950720F079F4A6F54B
:1012B0000C940C0D0EF4E0950B2EBA2FA02D0B0103
:1012C000B90190010C01CA01A0011124FF27591B8B
:1012D00099F0593F50F4503E68F11A16F040A22F91
:1012E000232F342F4427585FF3CF46953795279502
:1012F000A795F0405395C9F77EF41F16BA0B620B01
:10130000730B840BBAF09150A1F0FF0FBB1F661F47
:10131000771F881FC2F70EC0BA0F621F731F841F8A
:1013200048F4879577956795B795F7959E3F08F0B0
:10133000B0CF9395880F08F09927EE0F9795879572
:1013400008950E94F20C88F09F5798F0B92F9927C2
:10135000B751B0F0E1F0660F771F881F991F1AF0A0
:10136000BA95C9F714C0B13091F00E940C0DB1E0EC
:1013700008950C940C0D672F782F8827B85F39F0EB
:10138000B93FCCF3869577956795B395D9F73EF439
:1013900090958095709561957F4F8F4F9F4F0895E1
:1013A0000E94310C08F48FEF08950E94310C880BD5
:1013B000990B0895CF93DF938230910510F482E06A
:1013C00090E0E0911D02F0911E0220E030E0C0E0CC
:1013D000D0E0309711F14081518148175907C0F092
:1013E0004817590761F482819381209719F09B83F4
:1013F0008A832BC090931E0280931D0226C0211564
:10140000310519F04217530718F49A01BE01DF01A4
:10141000EF010280F381E02DDCCF2115310509F1C8
:10142000281B390B2430310590F412968D919C9134
:1014300013976115710521F0FB019383828304C02A
:1014400090931E0280931D02FD01329644C0FD015F
:10145000E20FF31F81939193225031092D933C9316
:101460003AC020911B0230911C02232B41F42091A1
:1014700006013091070130931C0220931B0220913A
:101480000401309105012115310541F42DB73EB716
:101490004091080150910901241B350BE0911B027A
:1014A000F0911C02E217F307A0F42E1B3F0B281744
:1014B000390778F0AC014E5F5F4F2417350748F0CD
:1014C0004E0F5F1F50931C0240931B028193919318
:1014D00002C0E0E0F0E0CF01DF91CF9108950F93DB
:1014E0001F93CF93DF93009709F48CC0FC013297D0
:1014F0001382128200911D0210911E020115110526
:1015000081F420813181820F931F20911B02309141
:101510001C022817390779F5F0931C02E0931B028F
:1015200071C0D80140E050E0AE17BF0750F41296EA
:101530002D913C911397AD012115310509F1D90188
:10154000F3CF9D01DA013383228360817181860F9D
:10155000971F8217930769F4EC0128813981260FC0
:10156000371F2E5F3F4F318320838A819B81938376
:101570008283452B29F4F0931E02E0931D0242C0A2
:101580001396FC93EE931297ED01499159919E01A8
:10159000240F351FE217F30771F480819181840FC6
:1015A000951F029611969C938E9382819381139638
:1015B0009C938E931297E0E0F0E0D80112968D9103
:1015C0009C911397009719F0F8018C01F6CF8D913B
:1015D0009C9198012E5F3F4F820F931F20911B0219
:1015E00030911C022817390769F4309729F41092BA
:1015F0001E0210921D0202C01382128210931C025E
:1016000000931B02DF91CF911F910F910895A0E0ED
:10161000B0E0EDE0FBE00C94170DEC01009721F435
:10162000CB010E94DA09B8C0FC01E60FF71F9C014C
:1016300022503109E217F30708F4ACC0D9010D912B
:101640001C91119706171707B0F00530110508F423
:101650009FC0C80104978617970708F499C00250E5
:101660001109061B170B019311936D937C93CF0106
:101670000E946F0A8DC05B01A01AB10A4C01800E56
:10168000911EA0911D02B0911E0240E050E0E12C9D
:10169000F12C109709F44AC0A815B905D1F56D9041
:1016A0007C901197630182E0C80ED11CCA14DB0440
:1016B00080F1A3014A195B096A0182E0C80ED11CBE
:1016C0001296BC9012971396AC91B5E0CB16D1044C
:1016D00040F0B282A38351834083D9016D937C9300
:1016E0000AC00E5F1F4FC301800F911FF901918344
:1016F0008083EB2DFA2FE114F10431F0D70113961A
:10170000FC93EE93129744C0F0931E02E0931D02E7
:101710003FC08D919C9111974817590708F4AC016F
:101720007D0112960D90BC91A02DB3CF80911B022C
:1017300090911C0288159905E1F446175707C8F4E3
:101740008091040190910501009741F48DB79EB7F7
:101750004091080150910901841B950BE817F90786
:10176000C8F4F0931C02E0931B02F90171836083BB
:101770000FC0CB010E94DA097C01009759F0A80143
:10178000BE010E94D60BCE010E946F0AC70104C0A1
:10179000CE0102C080E090E0CDB7DEB7EEE00C9461
:1017A000330D81E090E0F8940C944A0DFB01DC01CC
:1017B00002C001900D9241505040D8F70895FB01AE
:1017C000DC018D91019080190110D9F3990B0895D6
:1017D000FB01DC0101900D920020E1F708950E94C9
:1017E000310C08F481E00895E89409C097FB3EF4B9
:1017F00090958095709561957F4F8F4F9F4F99235E
:10180000A9F0F92F96E9BB279395F69587957795DB
:101810006795B795F111F8CFFAF4BB0F11F460FF9B
:101820001BC06F5F7F4F8F4F9F4F16C0882311F0F3
:1018300096E911C0772321F09EE8872F762F05C007
:10184000662371F096E8862F70E060E02AF09A95A2
:10185000660F771F881FDAF7880F9695879597F997
:101860000895990F0008550FAA0BE0E8FEEF161631
:101870001706E807F907C0F012161306E407F50784
:1018800098F0621B730B840B950B39F40A2661F0F8
:10189000232B242B252B21F408950A2609F4A1409B
:1018A000A6958FEF811D811D08950E94680C0C94F0
:1018B000D90C0E94CB0C38F00E94D20C20F095235A
:1018C00011F00C94C20C0C94C80C11240C940D0D46
:1018D0000E94EA0C70F3959FC1F3950F50E0551FDD
:1018E000629FF001729FBB27F00DB11D639FAA2775
:1018F000F00DB11DAA1F649F6627B00DA11D661FC4
:10190000829F2227B00DA11D621F739FB00DA11DE4
:10191000621F839FA00D611D221F749F3327A00D9E
:10192000611D231F849F600D211D822F762F6A2F3A
:1019300011249F5750409AF0F1F088234AF0EE0F9F
:10194000FF1FBB1F661F771F881F91505040A9F7CC
:101950009E3F510580F00C94C20C0C940D0D5F3F1E
:10196000E4F3983ED4F3869577956795B795F79508
:10197000E7959F5FC1F7FE2B880F911D9695879580
:1019800097F9089597F99F6780E870E060E00895FF
:101990009FEF80EC089500240A9416161706180687
:1019A0000906089500240A94121613061406050663
:1019B0000895092E0394000C11F4882352F0BB0FF4
:1019C00040F4BF2B11F460FF04C06F5F7F4F8F4F57
:1019D0009F4F089557FD9058440F551F59F05F3F92
:1019E00071F04795880F97FB991F61F09F3F79F041
:1019F00087950895121613061406551FF2CF4695C3
:101A0000F1DF08C0161617061806991FF1CF869544
:101A10007105610508940895E894BB276627772728
:101A2000CB0197F908952F923F924F925F926F9258
:101A30007F928F929F92AF92BF92CF92DF92EF925E
:101A4000FF920F931F93CF93DF93CDB7DEB7CA1BDF
:101A5000DB0B0FB6F894DEBF0FBECDBF09942A880A
:101A6000398848885F846E847D848C849B84AA84B2
:101A7000B984C884DF80EE80FD800C811B81AA813F
:101A8000B981CE0FD11D0FB6F894DEBF0FBECDBF0A
:101A9000ED01089510E0C2E6D0E004C0FE010E940E
:0E1AA0002E092196C336D107C9F7F894FFCF5F
:101AAE00D502D50200001F028000000000001C01BC
:101ABE009800E500C300D700630100000000350464
:101ACE0000000000A40330007265616479000D0A05
:101ADE00003100626567696E0032006E616E0069EA
:0A1AEE006E66006F7666002C0000A3
:107E0000112484B714BE81FFF0D085E080938100F7
:107E100082E08093C00088E18093C10086E0809377
:107E2000C20080E18093C4008EE0C9D0259A86E02C
:107E300020E33CEF91E0309385002093840096BBD3
:107E4000B09BFECF1D9AA8958150A9F7CC24DD24C4
:107E500088248394B5E0AB2EA1E19A2EF3E0BF2EE7
:107E6000A2D0813461F49FD0082FAFD0023811F036
:107E7000013811F484E001C083E08DD089C08234E0
:107E800011F484E103C0853419F485E0A6D080C0E4
:107E9000853579F488D0E82EFF2485D0082F10E0AE
:107EA000102F00270E291F29000F111F8ED06801E7
:107EB0006FC0863521F484E090D080E0DECF843638
:107EC00009F040C070D06FD0082F6DD080E0C81688
:107ED00080E7D80618F4F601B7BEE895C0E0D1E017
:107EE00062D089930C17E1F7F0E0CF16F0E7DF06D8
:107EF00018F0F601B7BEE89568D007B600FCFDCFD4
:107F0000A601A0E0B1E02C9130E011968C91119780
:107F100090E0982F8827822B932B1296FA010C0160
:107F200087BEE89511244E5F5F4FF1E0A038BF0790
:107F300051F7F601A7BEE89507B600FCFDCF97BE46
:107F4000E89526C08437B1F42ED02DD0F82E2BD052
:107F50003CD0F601EF2C8F010F5F1F4F84911BD097
:107F6000EA94F801C1F70894C11CD11CFA94CF0C13
:107F7000D11C0EC0853739F428D08EE10CD085E9AC
:107F80000AD08FE07ACF813511F488E018D01DD067
:107F900080E101D065CF982F8091C00085FFFCCF94
:107FA0009093C60008958091C00087FFFCCF809118
:107FB000C00084FD01C0A8958091C6000895E0E648
:107FC000F0E098E1908380830895EDDF803219F02E
:107FD00088E0F5DFFFCF84E1DECF1F93182FE3DFCA
:107FE0001150E9F7F2DF1F91089580E0E8DFEE27F6
:047FF000FF270994CA
:027FFE00040479
:0400000300007E007B
:00000001FF
