:100000000C9463000C94C4040C949D040C948B0019
:100010000C948B000C948B000C948B000C948B0034
:100020000C948B000C948B000C948B000C948B0024
:100030000C948B000C948B000C948B000C948B0014
:100040000C9453040C948B000C949A020C9474023C
:100050000C948B000C948B000C948B000C948B00F4
:100060000C948B000C948B000000000024002700EF
:100070002A0000000000250028002B0000000008D6
:10008000000201000003040700000000000000005F
:10009000010204081020408001020408102001021F
:1000A000040810200000000023002600290004049A
:1000B0000404040404040202020202020303030310
:1000C00003034D09410911241FBECFEFD8E0DEBF65
:1000D000CDBF11E0A0E0B1E0E4EAFDE102C005908F
:1000E0000D92A635B107D9F722E0A6E5B1E001C02F
:1000F0001D92A635B207E1F710E0C2E6D0E004C0D9
:100100002197FE010E948F0AC136D107C9F70E94CC
:1001100092060C94C50E0C940000CF92DF92EF92E1
:10012000FF920F931F93CF93DF936C017A018B01A2
:10013000C0E0D0E0CE15DF0589F0D8016D918D01CA
:10014000D601ED91FC910190F081E02DC601099559
:10015000892B11F47E0102C02196ECCFC701DF91FB
:10016000CF911F910F91FF90EF90DF90CF90089566
:10017000FC01918D828D981761F0828DDF01A80FAF
:10018000B11D5D968C91928D9F5F9F73928F90E0D1
:1001900008958FEF9FEF0895FC01918D828D981740
:1001A00031F0828DE80FF11D858D90E008958FEF7D
:1001B0009FEF0895FC01918D228D892F90E0805C46
:1001C0009F4F821B91098F73992708958FE891E0C3
:1001D0000E94DA0021E0892B09F420E0822F0895A3
:1001E000FC01848DDF01A80FB11DA35ABF4F2C91D4
:1001F000848D90E001968F739927848FA689B789A3
:100200002C93A089B1898C9180648C93938D848D7B
:10021000981306C00288F389E02D80818F7D80834A
:100220000895EF92FF920F931F93CF93DF93EC010A
:1002300081E0888F9B8D8C8D981305C0E889F989A2
:10024000808185FD24C0F62E0B8D10E00F5F1F4FBF
:100250000F731127E02E8C8DE8120CC00FB607FC2F
:10026000FACFE889F989808185FFF5CFCE010E9418
:10027000F000F1CF8B8DFE01E80FF11DE35AFF4F27
:10028000F0820B8FEA89FB898081806207C0EE894A
:10029000FF896083E889F98980818064808381E0B7
:1002A00090E0DF91CF911F910F91FF90EF90089513
:1002B000CF93DF93EC01888D8823C9F0EA89FB890D
:1002C000808185FD05C0A889B9898C9186FD0FC004
:1002D0000FB607FCF5CF808185FFF2CFA889B989D9
:1002E0008C9185FFEDCFCE010E94F000E7CFDF912A
:1002F000CF91089580E090E0892B29F00E94E600DC
:1003000081110C94000008953FB7F89480915B012F
:1003100090915C01A0915D01B0915E0126B5A89B12
:1003200005C02F3F19F00196A11DB11D3FBFBA2F87
:10033000A92F982F8827820F911DA11DB11DBC01E7
:10034000CD0142E0660F771F881F991F4A95D1F7AC
:1003500008958F929F92AF92BF92CF92DF92EF92C9
:10036000FF926B017C010E9484014B015C01C1146E
:10037000D104E104F104F1F00E948401DC01CB011D
:1003800088199909AA09BB09883E9340A105B105BE
:1003900070F321E0C21AD108E108F10888EE880E56
:1003A00083E0981EA11CB11CC114D104E104F10426
:1003B00019F7DDCFFF90EF90DF90CF90BF90AF9017
:1003C0009F908F9008950895DC01ED91FD918081BB
:1003D000ED91FD919081ED91FD916C9163708E2373
:1003E00009F064609F2309F06860E1E0F2E0E60F45
:1003F000F11D659565956D936D917D918D919D91A3
:10040000099423C01AC012C016C010C01EC009C073
:1004100014C013C006C019C009C00DC007C00DC06C
:1004200014C062507040804090400BC061507040DA
:100430008040904006C06E5F01C06F5F7F4F8F4F5E
:100440009F4F9E938E937E936E93089580912E027C
:1004500090912F020C94E40180912C0290912D0236
:100460000C94E4010E94320DEF92FF920F931F93C0
:10047000CF93DF93EC017B018A01888199810097FA
:1004800029F02A813B8124173507F8F4B8016F5F02
:100490007F4F0E94680C009759F0998388831B83D3
:1004A0000A832C813D81232B81F4FC0110820DC035
:1004B00088819981009711F00E94D00B19821882CF
:1004C0001D821C821B821A8207C01D830C83B70108
:1004D000888199810E94490DCE01DF91CF911F91B2
:1004E0000F91FF90EF9008951F920F920FB60F9209
:1004F00011242F933F934F935F936F937F938F9329
:100500009F93AF93BF93EF93FF938FE891E00E9487
:10051000F000FF91EF91BF91AF919F918F917F91EB
:100520006F915F914F913F912F910F900FBE0F9060
:100530001F9018951F920F920FB60F9211242F93B0
:100540008F939F93EF93FF93E0919F01F091A00110
:100550008081E091A501F091A60182FD12C09081F9
:100560008091A8018F5F8F732091A901821751F0AC
:10057000E091A801F0E0E157FE4F958F8093A8012C
:1005800001C08081FF91EF919F918F912F910F90EA
:100590000FBE0F901F90189590E0FC01E458FF4F9C
:1005A0003491FC01E057FF4F2491FC01E255FF4FCD
:1005B000E491EE2309F43BC0332339F1333091F059
:1005C00038F43130A9F0323001F584B58F7D12C096
:1005D000373091F03830A1F03430B9F48091800098
:1005E0008F7D03C0809180008F77809380000DC045
:1005F00084B58F7784BD09C08091B0008F7703C028
:100600008091B0008F7D8093B000F0E0EE0FFF1F6F
:10061000EE58FF4FA591B4918FB7F894EC9161110A
:1006200003C020952E2301C02E2B2C938FBF08953D
:10063000CF93DF9390E0FC01E057FF4F2491FC0142
:10064000E255FF4F8491882361F190E0880F991F54
:10065000FC01E859FF4FC591D491FC01EE58FF4FC2
:10066000A591B491611109C09FB7F8948881209534
:1006700082238883EC912E230BC0623061F49FB7F4
:10068000F8943881822F809583238883EC912E2BD8
:100690002C939FBF06C08FB7F894E8812E2B288338
:1006A0008FBFDF91CF9108951F93CF93DF93182FC2
:1006B000EB0161E00E941803209711F460E004C090
:1006C000CF3FD10539F461E0812FDF91CF911F91A8
:1006D0000C94CC02E12FF0E0E458FF4FE491E330BA
:1006E000F9F048F4E130B9F0E230A1F584B5806268
:1006F00084BDC8BD34C0E730E9F0E83019F1E4301A
:1007000049F580918000806280938000D0938B00B7
:10071000C0938A0024C084B5806884BDC7BD1FC053
:1007200080918000806880938000D0938900C0937E
:10073000880015C08091B00080688093B000C0939D
:10074000B3000DC08091B00080628093B000C09370
:10075000B40005C0C038D1050CF0B5CFAFCFDF91E4
:10076000CF911F9108951F93CF93DF93EC01162F24
:100770008F818617A8F58F81811708F03FC02885E3
:1007800039852115310521F4682F70E08C8106C070
:100790002130310531F4682F70E08D810E945403BF
:1007A00002C01F8210E06E8170E080E090E00E9445
:1007B000A9018F818F5F8F83DECF28853985211531
:1007C000310591F4682F70E08C810E9454036E8192
:1007D00070E080E090E00E94A9018F8181508F83BA
:1007E0008F81181750F30AC02130310521F4682F8A
:1007F00070E08D81EACF1F8210E0E9CFDF91CF91C9
:100800001F910895FF920F931F93CF93DF938B0156
:10081000642FFC012085318502171307C1F0F42EE7
:10082000EC0160E00230110561F40E94B303198706
:100830000887CE01DF91CF911F910F91FF900C940B
:1008400042040E94B303198708876F2DCE01DF9100
:10085000CF911F910F91FF900C94B303CF93DF932F
:10086000EC0140E062E070E00E9402048A8188238B
:1008700031F060E08B81DF91CF910C94CC02DF915D
:10088000CF91089540E062E070E00C9402042FB72D
:10089000F89460915701709158018091590190919D
:1008A0005A012FBF08951F920F920FB60F92112475
:1008B0002F933F938F939F93AF93BF938091570153
:1008C00090915801A0915901B0915A01309156016F
:1008D00023E0230F2D3720F40196A11DB11D05C083
:1008E00026E8230F0296A11DB11D20935601809387
:1008F000570190935801A0935901B0935A018091E8
:100900005B0190915C01A0915D01B0915E01019647
:10091000A11DB11D80935B0190935C01A0935D01CB
:10092000B0935E01BF91AF919F918F913F912F91B5
:100930000F900FBE0F901F9018951F920F920FB639
:100940000F9211242F933F934F935F936F937F9355
:100950008F939F93AF93BF93EF93FF93E091030126
:10096000F09104010995FF91EF91BF91AF919F9193
:100970008F917F916F915F914F913F912F910F9048
:100980000FBE0F901F9018951F920F920FB60F92E7
:1009900011242F933F934F935F936F937F938F9384
:1009A0009F93AF93BF93EF93FF93E0910101F09179
:1009B00002010995FF91EF91BF91AF919F918F91A6
:1009C0007F916F915F914F913F912F910F900FBE4B
:1009D0000F901F901895E0918F01F0919001019078
:1009E000F081E02D682F8FE891E0099480E48093F6
:1009F0007C0080917A00806480937A0080917A00F4
:100A000086FDFCCF809178002091790090E0922BB8
:100A10000895009769F0FC0101900020E9F73197F3
:100A2000AF01481B590BBC018FE891E00C948D007D
:100A300080E090E008958F929F92AF92BF920F93C3
:100A40001F93CF93DF93CDB7DEB7A1970FB6F8947E
:100A5000DEBF0FBECDBF19A2423008F44AE08E01BE
:100A60000F5D1F4F842E912CA12CB12CA501940158
:100A70000E946D0AE62FB901CA0101501109EA303E
:100A800014F4E05D01C0E95CD801EC93232B242B26
:100A9000252B61F7C8010E940905A1960FB6F894AD
:100AA000DEBF0FBECDBFDF91CF911F910F91BF90E1
:100AB000AF909F908F900895CF93DF930E94090588
:100AC000EC0181E491E00E9409058C0F9D1FDF91EC
:100AD000CF9108958F929F92AF92BF92CF92DF9263
:100AE000EF92FF92CF93DF936B017C019B01AC01EE
:100AF0000E94360B882319F089E491E027C0460153
:100B00005701E894B7F82FEF3FEF4FE75FE7C501D4
:100B1000B4010E94360B81110DC02FEF3FEF4FE75C
:100B20005FE7C501B4010E94500D18161CF48DE456
:100B300091E00CC02FEF3FEF4FE75FE4C701B60134
:100B40000E94310B181674F481E591E0DF91CF918A
:100B5000FF90EF90DF90CF90BF90AF909F908F90DD
:100B60000C9409052FEF3FEF4FE75FECC701B6018B
:100B70000E94500D87FDE8CF20E030E0A901C701B9
:100B8000B6010E94500D87FF09C08DE20E94EB0460
:100B9000EC01F7FAF094F7F8F09402C0C0E0D0E06E
:100BA0002AE037ED43EA5BE3C701B6010E94960AEB
:100BB0004B015C010E94020B6B017C010E94550DF0
:100BC0009B01AC01C501B4010E94950A4B015C0177
:100BD0004AE0C701B6010E941B05C80FD91F8EE26B
:100BE0000E94EB04C80FD91F20E030E040E251E43E
:100BF000C501B4010E94B60D4B015C010E94020BBD
:100C00006B01E12CF12C4AE0C701B6010E941B05E3
:100C1000C80FD91FC701B6010E94550D9B01AC0139
:100C2000C501B4010E94950A20E030E040E251E4A1
:100C30000E94B60D0E94020B80E090E04AE00E9404
:100C40001B058C0F9D1FDF91CF91FF90EF90DF90E0
:100C5000CF90BF90AF909F908F900895CF92DF92EA
:100C6000EF92FF92CF93DF9397FF19C06B017C0146
:100C70008DE20E94EB04EC0166277727CB016C190B
:100C80007D098E099F094AE00E941B058C0F9D1F5C
:100C9000DF91CF91FF90EF90DF90CF9008954AE0E1
:100CA000DF91CF91FF90EF90DF90CF900C941B05D8
:100CB0000F931F930E9447046093970170939801CC
:100CC0008093990190939A01E0918F01F0919001A6
:100CD0000084F185E02D8FE891E0099597FF1FC012
:100CE0000E94470400919701109198012091990169
:100CF00030919A01DC01CB01801B910BA20BB30B4D
:100D000000919301109194012091950130919601E9
:100D100080179107A207B307B8F28FEF9FEF1F91DB
:100D20000F910895CF93DF9300D000D000D0CDB7BE
:100D3000DEB7789484B5826084BD84B5816084BD5B
:100D400085B5826085BD85B5816085BD80916E0069
:100D5000816080936E00109281008091810082609A
:100D600080938100809181008160809381008091D7
:100D700080008160809380008091B10084608093C6
:100D8000B1008091B00081608093B00080917A00C2
:100D9000846080937A0080917A00826080937A00E8
:100DA00080917A00816080937A0080917A008068D7
:100DB00080937A001092C100E0919F01F091A00110
:100DC00082E08083E0919B01F0919C011082E09190
:100DD0009D01F0919E0180E180831092A701E09136
:100DE000A301F091A40186E08083E091A101F0913C
:100DF000A201808180618083E091A101F091A20134
:100E0000808188608083E091A101F091A2018081BE
:100E100080688083E091A101F091A20180818F7DA3
:100E2000808361E084E00E94180360E084E00E9417
:100E3000CC0262E370E080E090E00E94A90161E0F2
:100E400084E00E94CC028DE291E00E945C0511E0FA
:100E50000FE191E6292E91E0392E8FE891E00E9472
:100E6000DA0020918E01181619061CF4222309F4C9
:100E700068C1222381F0F10101900020E9F7319748
:100E8000AF014156514061E671E080E392E00E947B
:100E9000340210928E018091340290913502892B98
:100EA00009F44CC1E0903002F090310263E371E04C
:100EB000C7010E94400D892B09F040C04FEF61E04F
:100EC00070E088E492E00E94020460E177E280E052
:100ED00090E00E94A90188E492E00E944204F89404
:100EE0001092430210924402109245021092460260
:100EF00078940E94F6046AE070E080E090E00E943E
:100F0000A9010E94F604BC01990F880B990B0E945D
:100F1000570D6093810170938201809383019093B8
:100F2000840185E391E00E945C0541E050E06BE3C1
:100F300071E080E392E00E94340200C16DE371E051
:100F4000C7010E94400D892B09F0EDC08091470236
:100F5000823030F4F8948CE392E00E94E40101C006
:100F6000F894C0904302D0904402E0904502F09083
:100F7000460278940E9447042B013C010E94F6042B
:100F80009E838D830E94470469837A838B839C832D
:100F900080910001811191C0C701B6010E94570DD7
:100FA00020E030E040E85AE30E94B60D9B01AC011E
:100FB0000E94960A6B017C0180908A0190908B01BF
:100FC000A0908C01B0908D019B01AC01C501B401D2
:100FD0000E94310B181644F446E960E070E088E4A2
:100FE00092E00E94020420C0A7019601C501B4014D
:100FF0000E94500D1816C4F0109300011092890140
:1010000010928A0110928B0110928C0110928D0126
:1010100088E492E00E94420441E050E06BE371E01A
:1010200080E392E00E9434020E9447048090850190
:1010300090908601A0908701B090880124EF820EE5
:1010400021E0921EA11CB11C86169706A806B906BF
:1010500008F074C00E944704609385017093860174
:101060008093870190938801C701B6010E946A05A9
:101070008FE391E00E940905C301B2010E942E0690
:101080008FE391E00E940905ED81FE81BF01FF0F12
:10109000880B990B0E94570D0E946A058FE391E01F
:1010A0000E94090569817A818B819C810E942E06AC
:1010B00081E491E00E94090541C084E491E00E942E
:1010C0005C058FE891E00E94DA00892BB9F50E9457
:1010D0005806FC0197FD17C08D32910509F45CC0DC
:1010E000C0970A9708F458C0EE32F10509F454C0CD
:1010F000E0918F01F09190010680F781E02D8FE85B
:1011000091E00995E4CF60E070E0CB0160938A0143
:1011100070938B0180938C0190938D01109200014C
:1011200010938901CECF6BE371E0C7010E94400D9F
:10113000892B21F488E492E00E9442040E947A0103
:101140008CCE8FE891E00E94B800909160019923C5
:10115000E9F0E0915F018E3371F0AE2FB0E0AF594E
:10116000BE4F8C93EF5FE03218F4E0935F0175CED1
:1011700000935F0172CEF0E0EF59FE4F10821092A3
:10118000600110925F0110938E0167CE8C3309F0DD
:1011900064CE1093600161CE812C912C80E8A82E42
:1011A0008FE3B82EC12CD12C7601712C612CE1304B
:1011B000F10579F1ED32F10539F1EE32F10539F150
:1011C000CF01C0970A9728F5AAE0B0E0A7019601E1
:1011D0000E94740E6F01FF0FEE08FF08C60ED71EA7
:1011E000E81EF91EF0E3CF1AD108E108F1087720D4
:1011F00081F02DEC3CEC4CEC5DE3C501B4010E94A8
:10120000B60D4B015C0105C06624639402C07724CF
:101210007394E0918F01F09190010680F781E02DA9
:101220008FE891E009950E945806FC01C0970A9743
:1012300008F4BDCFEE32F10519F471101FC0B7CF1D
:10124000E130F10509F4B3CF662041F0F094E09469
:10125000D094C094C11CD11CE11CF11C772049F032
:10126000C701B6010E94570DA50194010E94B60D59
:101270004DCFC701B6010E94570D48CF6110E6CF90
:10128000EFCF80913002909131020E94D00B80917B
:101290003602909137020C94D00BCF93DF931092CB
:1012A00092011092910188EE93E0A0E0B0E080936B
:1012B000930190939401A0939501B09396018FE0D0
:1012C00091E09093900180938F0185EC90E0909352
:1012D0009C0180939B0184EC90E090939E0180930D
:1012E0009D0180EC90E09093A00180939F0181ECA0
:1012F00090E09093A2018093A10182EC90E0909302
:10130000A4018093A30186EC90E09093A6018093C2
:10131000A5011092A8011092A9011092AA011092A1
:10132000AB018FE191E0909349028093480281E004
:1013300080934A0288E080934B028BE080934C02BA
:1013400085E080934D0283E080934E0261E08BE064
:101350000E94180361E080914D020E94180361E031
:1013600080914B020E94180360E070E080914C0273
:101370000E94540360E070E080914D020E9454038B
:1013800061E080914B020E94CC0285E291E0909353
:1013900049028093480210924F0282E090E09093BD
:1013A00051028093500262E00E94180362E083E0E1
:1013B0000E941803E0EBF0E0E491F0E0EE0FFF1F75
:1013C000EC55FF4FA591B491B0933D02A0933C0220
:1013D000E2E9F0E0849180934002E1EBF0E0E491F7
:1013E000F0E0EE0FFF1FEC55FF4FC591D491D09365
:1013F0003F02C0933E02E3E9F0E0E491E093410252
:10140000109243021092440210924502109246023A
:10141000EBE3FFE13197F1F7EC91E82381E009F488
:1014200080E0288190914102922309F082602CE3B0
:1014300032E08093420230932D0220932C028CE202
:1014400092E09093020180930101809169008C7F6A
:10145000816080936900E89A81E08093470230932D
:101460002F0220932E0286E292E090930401809353
:10147000030180916900837F846080936900E99A09
:1014800082E0809347021092370210923602109247
:1014900039021092380210923B0210923A0240E058
:1014A00050E063E471E086E392E00E94340210921F
:1014B00031021092300210923302109232021092D6
:1014C00035021092340241E050E06BE371E080E3BA
:1014D00092E0DF91CF910C943402A1E21A2EAA1B64
:1014E000BB1BFD010DC0AA1FBB1FEE1FFF1FA217D4
:1014F000B307E407F50720F0A21BB30BE40BF50BD1
:10150000661F771F881F991F1A9469F76095709559
:10151000809590959B01AC01BD01CF010895EE0F20
:10152000FF1F0590F491E02D09945058BB27AA277E
:101530000E94AD0A0C943A0E0E942C0E38F00E94C4
:10154000330E20F039F49F3F19F426F40C94290E41
:101550000EF4E095E7FB0C94230EE92F0E944B0E4E
:1015600058F3BA17620773078407950720F079F4D8
:10157000A6F50C946D0E0EF4E0950B2EBA2FA02D4F
:101580000B01B90190010C01CA01A0011124FF2730
:10159000591B99F0593F50F4503E68F11A16F0402B
:1015A000A22F232F342F4427585FF3CF469537952A
:1015B0002795A795F0405395C9F77EF41F16BA0BEF
:1015C000620B730B840BBAF09150A1F0FF0FBB1F9D
:1015D000661F771F881FC2F70EC0BA0F621F731FE6
:1015E000841F48F4879577956795B795F7959E3F43
:1015F00008F0B0CF9395880F08F09927EE0F9795D4
:10160000879508950E94530E88F09F5798F0B92F40
:101610009927B751B0F0E1F0660F771F881F991F27
:101620001AF0BA95C9F714C0B13091F00E946D0E4E
:10163000B1E008950C946D0E672F782F8827B85F5E
:1016400039F0B93FCCF3869577956795B395D9F77F
:101650003EF490958095709561957F4F8F4F9F4F89
:1016600008950E94920D08F48FEF08950E94920D44
:10167000880B990B0895CF93DF938230910510F476
:1016800082E090E0E0915402F091550220E030E0D9
:10169000C0E0D0E0309711F14081518148175907DF
:1016A000C0F04817590761F482819381209719F09F
:1016B0009B838A832BC0909355028093540226C04B
:1016C0002115310519F04217530718F49A01BE018C
:1016D000DF01EF010280F381E02DDCCF2115310520
:1016E00009F1281B390B2430310590F412968D91A5
:1016F0009C9113976115710521F0FB0193838283FF
:1017000004C09093550280935402FD01329644C068
:10171000FD01E20FF31F81939193225031092D9324
:101720003C933AC02091520230915302232B41F452
:101730002091070130910801309353022093520207
:1017400020910501309106012115310541F42DB795
:101750003EB74091090150910A01241B350BE091DD
:101760005202F0915302E217F307A0F42E1B3F0B35
:101770002817390778F0AC014E5F5F4F2417350703
:1017800048F04E0F5F1F50935302409352028193D3
:10179000919302C0E0E0F0E0CF01DF91CF91089596
:1017A0000F931F93CF93DF93009709F48CC0FC0134
:1017B0003297138212820091540210915502011542
:1017C000110581F420813181820F931F20915202F3
:1017D000309153022817390779F5F0935302E093BB
:1017E000520271C0D80140E050E0AE17BF0750F47C
:1017F00012962D913C911397AD012115310509F1F8
:10180000D901F3CF9D01DA01338322836081718195
:10181000860F971F8217930769F4EC01288139819D
:10182000260F371F2E5F3F4F318320838A819B8194
:1018300093838283452B29F4F0935502E09354025D
:1018400042C01396FC93EE931297ED014991599182
:101850009E01240F351FE217F30771F480819181F7
:10186000840F951F029611969C938E93828193818B
:1018700013969C938E931297E0E0F0E0D8011296B5
:101880008D919C911397009719F0F8018C01F6CF78
:101890008D919C9198012E5F3F4F820F931F209155
:1018A0005202309153022817390769F4309729F40E
:1018B000109255021092540202C0138212821093A9
:1018C000530200935202DF91CF911F910F9108951F
:1018D000A0E0B0E0EEE6FCE00C94830EEC01009793
:1018E00021F4CB010E943B0BB8C0FC01E60FF71FAF
:1018F0009C0122503109E217F30708F4ACC0D9016A
:101900000D911C91119706171707B0F005301105BE
:1019100008F49FC0C80104978617970708F499C078
:1019200002501109061B170B019311936D937C93C1
:10193000CF010E94D00B8DC05B01A01AB10A4C01EF
:10194000800E911EA0915402B091550240E050E0EB
:10195000E12CF12C109709F44AC0A815B905D1F56E
:101960006D907C901197630182E0C80ED11CCA145F
:10197000DB0480F1A3014A195B096A0182E0C80E09
:10198000D11C1296BC9012971396AC91B5E0CB1671
:10199000D10440F0B282A38351834083D9016D9377
:1019A0007C930AC00E5F1F4FC301800F911FF90186
:1019B00091838083EB2DFA2FE114F10431F0D701EC
:1019C0001396FC93EE93129744C0F0935502E09364
:1019D00054023FC08D919C9111974817590708F404
:1019E000AC017D0112960D90BC91A02DB3CF8091DA
:1019F00052029091530288159905E1F44617570752
:101A0000C8F48091050190910601009741F48DB7CB
:101A10009EB74091090150910A01841B950BE8176C
:101A2000F907C8F4F0935302E0935202F90171836D
:101A300060830FC0CB010E943B0B7C01009759F0E3
:101A4000A801BE010E94370DCE010E94D00BC70134
:101A500004C0CE0102C080E090E0CDB7DEB7EEE07A
:101A60000C949F0E81E090E0F8940C94C50EFB015D
:101A7000DC0102C001900D9241505040D8F708950A
:101A8000FB01DC018D91019080190110D9F3990BB4
:101A90000895FB01DC0101900D920020E1F708950B
:101AA0000E94920D08F481E00895E89409C097FB24
:101AB0003EF490958095709561957F4F8F4F9F4F25
:101AC0009923A9F0F92F96E9BB279395F695879569
:101AD00077956795B795F111F8CFFAF4BB0F11F42C
:101AE00060FF1BC06F5F7F4F8F4F9F4F16C08823D3
:101AF00011F096E911C0772321F09EE8872F762F09
:101B000005C0662371F096E8862F70E060E02AF049
:101B10009A95660F771F881FDAF7880F9695879535
:101B200097F90895990F0008550FAA0BE0E8FEEF0A
:101B300016161706E807F907C0F012161306E40791
:101B4000F50798F0621B730B840B950B39F40A268A
:101B500061F0232B242B252B21F408950A2609F468
:101B6000A140A6958FEF811D811D08950E94C90D8A
:101B70000C943A0E0E942C0E38F00E94330E20F086
:101B8000952311F00C94230E0C94290E11240C941F
:101B90006E0E0E944B0E70F3959FC1F3950F50E0AF
:101BA000551F629FF001729FBB27F00DB11D639F0F
:101BB000AA27F00DB11DAA1F649F6627B00DA11DB5
:101BC000661F829F2227B00DA11D621F739FB00D5B
:101BD000A11D621F839FA00D611D221F749F3327CB
:101BE000A00D611D231F849F600D211D822F762F64
:101BF0006A2F11249F5750409AF0F1F088234AF041
:101C0000EE0FFF1FBB1F661F771F881F91505040AC
:101C1000A9F79E3F510580F00C94230E0C946E0E94
:101C20005F3FE4F3983ED4F3869577956795B79533
:101C3000F795E7959F5FC1F7FE2B880F911D96954D
:101C4000879597F9089597F99F6780E870E060E0BD
:101C500008959FEF80EC089500240A941616170645
:101C600018060906089500240A941216130614068D
:101C700005060895092E0394000C11F4882352F0F0
:101C8000BB0F40F4BF2B11F460FF04C06F5F7F4FA8
:101C90008F4F9F4F089557FD9058440F551F59F08F
:101CA0005F3F71F04795880F97FB991F61F09F3F49
:101CB00079F087950895121613061406551FF2CF72
:101CC0004695F1DF08C0161617061806991FF1CFC2
:101CD00086957105610508940895E894BB276627E9
:101CE0007727CB0197F908950E94B60EA59F900D16
:101CF000B49F900DA49F800D911D112408952F92E3
:101D00003F924F925F926F927F928F929F92AF928B
:101D1000BF92CF92DF92EF92FF920F931F93CF93D8
:101D2000DF93CDB7DEB7CA1BDB0B0FB6F894DEBF6F
:101D30000FBECDBF09942A88398848885F846E8495
:101D40007D848C849B84AA84B984C884DF80EE80DF
:101D5000FD800C811B81AA81B981CE0FD11D0FB6E8
:101D6000F894DEBF0FBECDBFED010895A29FB00174
:101D7000B39FC001A39F700D811D1124911DB29FBF
:101D8000700D811D1124911D089510E0C2E6D0E070
:101D900004C0FE010E948F0A2196C336D107C9F7FD
:041DA000F894FFCFE5
:101DA40001E301E30100005602800000000000117D
:101DB400018D00DA00B800CC0058010000000032A8
:101DC40002000000002E040B00050008007265618B
:101DD4006479003100626567696E00300032002C5E
:101DE400000D0A0067697665006E616E00696E66B3
:061DF400006F766600009E
:00000001FF
