:100000000C9462000C94FD040C94D6040C948A00A9
:100010000C948A000C948A000C948A000C948A0038
:100020000C948A000C948A000C948A000C948A0028
:100030000C948A000C948A000C948A000C948A0018
:100040000C948C040C948A000C945A040C94340480
:100050000C948A000C948A000C948A000C948A00F8
:100060000C948A000C948A000000000024002700F1
:100070002A0000000000250028002B0000000008D6
:10008000000201000003040700000000000000005F
:10009000010204081020408001020408102001021F
:1000A000040810200000000023002600290004049A
:1000B0000404040404040202020202020303030310
:1000C0000303240511241FBECFEFD8E0DEBFCDBF50
:1000D00011E0A0E0B1E0ECE2F4E102C005900D9285
:1000E000A233B107D9F721E0A2E3B1E001C01D922C
:1000F000A73FB207E1F710E0C2E6D0E004C02197C5
:10010000FE010E943F08C136D107C9F70E941E06B2
:100110000C94140A0C940000E0914001F09141010C
:100120000190F081E02D682F80E491E00994CF9256
:10013000DF92EF92FF920F931F93CF93DF936C01A7
:100140007A018B01C0E0D0E0CE15DF0589F0D8013F
:100150006D918D01D601ED91FC910190F081E02D22
:10016000C6010995892B11F47E0102C02196ECCFBE
:10017000C701DF91CF911F910F91FF90EF90DF901A
:10018000CF900895FC01918D828D981761F0828D3A
:10019000DF01A80FB11D5D968C91928D9F5F9F73BB
:1001A000928F90E008958FEF9FEF0895FC01918D5D
:1001B000828D981731F0828DE80FF11D858D90E0CA
:1001C00008958FEF9FEF0895FC01918D228D892F67
:1001D00090E0805C9F4F821B91098F73992708954F
:1001E00080E491E00E94E40021E0892B09F420E002
:1001F000822F0895FC01848DDF01A80FB11DA35A41
:10020000BF4F2C91848D90E001968F739927848F36
:10021000A689B7892C93A089B1898C9180648C932D
:10022000938D848D981306C00288F389E02D808118
:100230008F7D80830895EF92FF920F931F93CF934A
:10024000DF93EC0181E0888F9B8D8C8D981305C026
:10025000E889F989808185FD24C0F62E0B8D10E098
:100260000F5F1F4F0F731127E02E8C8DE8120CC00B
:100270000FB607FCFACFE889F989808185FFF5CFB1
:10028000CE010E94FA00F1CF8B8DFE01E80FF11D27
:10029000E35AFF4FF0820B8FEA89FB8980818062ED
:1002A00007C0EE89FF896083E889F98980818064CD
:1002B000808381E090E0DF91CF911F910F91FF90BB
:1002C000EF900895CF93DF93EC01888D8823C9F0D8
:1002D000EA89FB89808185FD05C0A889B9898C914F
:1002E00086FD0FC00FB607FCF5CF808185FFF2CFEA
:1002F000A889B9898C9185FFEDCFCE010E94FA00C3
:10030000E7CFDF91CF91089580E090E0892B29F02D
:100310000E94F00081110C940000089590E0FC010F
:10032000E458FF4F3491FC01E057FF4F2491FC014A
:10033000E255FF4FE491EE2309F43BC0332339F13A
:10034000333091F038F43130A9F0323001F584B512
:100350008F7D12C0373091F03830A1F03430B9F4CD
:10036000809180008F7D03C0809180008F77809383
:1003700080000DC084B58F7784BD09C08091B00026
:100380008F7703C08091B0008F7D8093B000F0E044
:10039000EE0FFF1FEE58FF4FA591B4918FB7F89461
:1003A000EC91611103C020952E2301C02E2B2C93BC
:1003B0008FBF0895CF93DF9390E0FC01E057FF4F8C
:1003C0002491FC01E255FF4F8491882361F190E074
:1003D000880F991FFC01E859FF4FC591D491FC018A
:1003E000EE58FF4FA591B491611109C09FB7F894E1
:1003F0008881209582238883EC912E230BC0623064
:1004000061F49FB7F8943881822F80958323888385
:10041000EC912E2B2C939FBF06C08FB7F894E881E8
:100420002E2B28838FBFDF91CF9108951F93CF93F9
:10043000DF93182FEB0161E00E94DA01209711F49D
:1004400060E004C0CF3FD10539F461E0812FDF9136
:10045000CF911F910C948E01E12FF0E0E458FF4FF3
:10046000E491E330F9F048F4E130B9F0E230A1F57D
:1004700084B5806284BDC8BD34C0E730E9F0E8309F
:1004800019F1E43049F5809180008062809380000A
:10049000D0938B00C0938A0024C084B5806884BD4B
:1004A000C7BD1FC080918000806880938000D0937A
:1004B0008900C093880015C08091B0008068809347
:1004C000B000C093B3000DC08091B00080628093F3
:1004D000B000C093B40005C0C038D1050CF0B5CF52
:1004E000AFCFDF91CF911F9108953FB7F8948091DE
:1004F000330190913401A0913501B091360126B5B8
:10050000A89B05C02F3F19F00196A11DB11D3FBF4B
:10051000BA2FA92F982F8827820F911DA11DB11DD9
:10052000BC01CD0142E0660F771F881F991F4A95D5
:10053000D1F708958F929F92AF92BF92CF92DF92A0
:10054000EF92FF926B017C010E9475024B015C01EE
:10055000C114D104E104F104F1F00E947502DC0140
:10056000CB0188199909AA09BB09883E9340A105C6
:10057000B10570F321E0C21AD108E108F10888EE54
:10058000880E83E0981EA11CB11CC114D104E104A3
:10059000F10419F7DDCFFF90EF90DF90CF90BF907F
:1005A000AF909F908F90089508951F93CF93DF93FE
:1005B000EC01162F8F818617A8F58F81811708F01F
:1005C0003FC0288539852115310521F4682F70E059
:1005D0008C8106C02130310531F4682F70E08D81A7
:1005E0000E94160202C01F8210E06E8170E080E05F
:1005F00090E00E949A028F818F5F8F83DECF2885E3
:1006000039852115310591F4682F70E08C810E94A5
:1006100016026E8170E080E090E00E949A028F8165
:1006200081508F838F81181750F30AC02130310514
:1006300021F4682F70E08D81EACF1F8210E0E9CFAE
:10064000DF91CF911F910895EF92FF920F931F9327
:10065000CF93DF931F92CDB7DEB77C018B01F701FB
:10066000808591850817190799F060E0C70102306D
:10067000110539F40E94D502F7011187008740E087
:10068000EECF49830E94D502F70111870087498187
:10069000642FC7010F90DF91CF911F910F91FF90B1
:1006A000EF900C94D502CF93DF93EC0140E062E031
:1006B00070E00E9424038A81882331F060E08B81FE
:1006C000DF91CF910C948E01DF91CF910895DC01E1
:1006D000ED91FD918081ED91FD919081ED91FD91E4
:1006E0006C9163708E2309F064609F2309F0686049
:1006F000E4E8F3E0E60FF11D659565956D936D9166
:100700007D918D919D91099423C01AC012C016C08D
:1007100010C01EC009C014C013C006C019C009C053
:100720000DC007C00DC014C06250704080409040A2
:100730000BC0615070408040904006C06E5F01C0A9
:100740006F5F7F4F8F4F9F4F9E938E937E936E93DD
:1007500008958091DF019091E0010C9467038091EE
:10076000DD019091DE010C946703009769F0FC01B4
:1007700001900020E9F73197AF01481B590BBC01EC
:1007800080E491E00C94970080E090E008958F92CF
:100790009F92AF92BF920F931F93CF93DF93CDB7EA
:1007A000DEB7A1970FB6F894DEBF0FBECDBF19A27A
:1007B000423008F44AE08E010F5D1F4F842E912CC9
:1007C000A12CB12CA50194010E941D08E62FB901AE
:1007D000CA0101501109EA3014F4E05D01C0E95C7E
:1007E000D801EC93232B242B252B61F7C8010E9401
:1007F000B503A1960FB6F894DEBF0FBECDBFDF9153
:10080000CF911F910F91BF90AF909F908F900895BF
:10081000CF92DF92EF92FF92CF93DF9397FF19C0B1
:100820006B017C018DE20E948C00EC01662777272A
:10083000CB016C197D098E099F094AE00E94C7030C
:100840008C0F9D1FDF91CF91FF90EF90DF90CF90A5
:1008500008954AE0DF91CF91FF90EF90DF90CF9025
:100860000C94C7030E940F0A1F920F920FB60F92AB
:1008700011242F933F934F935F936F937F938F93A5
:100880009F93AF93BF93EF93FF9380E491E00E9417
:10089000FA00FF91EF91BF91AF919F918F917F915E
:1008A0006F915F914F913F912F910F900FBE0F90DD
:1008B0001F9018951F920F920FB60F9211242F932D
:1008C0008F939F93EF93FF93E0915001F09151012B
:1008D0008081E0915601F091570182FD12C0908114
:1008E000809159018F5F8F7320915A01821751F0C7
:1008F000E0915901F0E0E05CFE4F958F8093590143
:1009000001C08081FF91EF919F918F912F910F9066
:100910000FBE0F901F9018951F920F920FB60F9257
:1009200011242F933F938F939F93AF93BF93809105
:10093000370190913801A0913901B0913A0130917D
:10094000320123E0230F2D3720F40196A11DB11DA4
:1009500005C026E8230F0296A11DB11D2093320188
:100960008093370190933801A0933901B0933A01F5
:100970008091330190913401A0913501B0913601FD
:100980000196A11DB11D8093330190933401A09372
:100990003501B0933601BF91AF919F918F913F91F7
:1009A0002F910F900FBE0F901F9018951F920F92CE
:1009B0000FB60F9211242F933F934F935F936F9332
:1009C0007F938F939F93AF93BF93EF93FF93E091A8
:1009D0000201F09103010995FF91EF91BF91AF9151
:1009E0009F918F917F916F915F914F913F912F9147
:1009F0000F900FBE0F901F9018951F920F920FB679
:100A00000F9211242F933F934F935F936F937F9394
:100A10008F939F93AF93BF93EF93FF93E091000168
:100A2000F09101010995FF91EF91BF91AF919F91D5
:100A30008F917F916F915F914F913F912F910F9087
:100A40000FBE0F901F901895CF93DF931092430124
:100A50001092420188EE93E0A0E0B0E08093440160
:100A600090934501A0934601B093470188E091E03F
:100A7000909341018093400185EC90E090934D016B
:100A800080934C0184EC90E090934F0180934E0151
:100A900080EC90E0909351018093500181EC90E0C4
:100AA000909353018093520182EC90E09093550112
:100AB0008093540186EC90E0909357018093560107
:100AC0001092590110925A0110925B0110925C0130
:100AD00088E191E09093EE018093ED0181E08093B5
:100AE000EF0188E08093F0018BE08093F10185E0D5
:100AF0008093F20183E08093F30161E08BE00E9438
:100B0000DA0161E08091F2010E94DA0161E08091F6
:100B1000F0010E94DA0160E070E08091F1010E9432
:100B2000160260E070E08091F2010E94160261E01E
:100B30008091F0010E948E018EE191E09093EE0190
:100B40008093ED011092F40182E090E09093F60121
:100B50008093F50162E083E00E94DA0162E082E0C6
:100B60000E94DA01E1EBF0E0E491F0E0EE0FFF1F0C
:100B7000EC55FF4FA591B491B093E201A093E10130
:100B8000E3E9F0E084918093E501E0EBF0E0E491AB
:100B9000F0E0EE0FFF1FEC55FF4FC591D491D093BD
:100BA000E401C093E301E2E9F0E0E491E093E601BF
:100BB0001092E8011092E9011092EA011092EB0103
:100BC000EBE3FFE13197F1F7EC91E82381E009F4E1
:100BD00080E028819091E601922309F0826021EE65
:100BE00031E08093E7013093E0012093DF0189EA4F
:100BF00093E0909303018093020180916900837FC9
:100C0000846080936900E99A81E08093EC013093DD
:100C1000DE012093DD018FEA93E090930101809340
:100C20000001809169008C7F816080936900E89A5F
:100C300082E08093EC01DF91CF910895789484B5A0
:100C4000826084BD84B5816084BD85B5826085BDC8
:100C500085B5816085BD80916E00816080936E0056
:100C60001092810080918100826080938100809148
:100C700081008160809381008091800081608093F9
:100C800080008091B10084608093B1008091B000B9
:100C900081608093B00080917A00846080937A00B4
:100CA00080917A00826080937A0080917A008160DE
:100CB00080937A0080917A00806880937A00109205
:100CC000C100E0915001F091510182E08083E091F8
:100CD0004C01F0914D011082E0914E01F0914F01D5
:100CE00080E1808310925801E0915401F091550108
:100CF00086E08083E0915201F09153018081806110
:100D00008083E0915201F09153018081886080835B
:100D1000E0915201F0915301808180688083E091DD
:100D20005201F091530180818F7D808361E084E0E6
:100D30000E94DA0160E084E00E948E0162E370E0CC
:100D400080E090E00E949A0261E084E00E948E01BF
:100D50004FEF60E070E08DEE91E00E94240360E1CF
:100D600077E280E090E00E949A0240E062E070E06A
:100D70008DEE91E00E942403F8941092E801109205
:100D8000E9011092EA011092EB01789401E010E47D
:100D90008091EC01823030F4F89481EE91E00E9471
:100DA000670301C0F8946091E8017091E9018091B6
:100DB000EA019091EB0178940E94E80820E030E08D
:100DC00040E85AE30E949D099B01AC010E9446083D
:100DD0006B017C018FB7F8948090370190903801B7
:100DE000A0903901B0903A018FBF80913F018111ED
:100DF0001BC020E030E04CE852E4C701B6010E947D
:100E0000B20887FF04C046E961E070E010C020E04E
:100E100030E04CE852E4C701B6010E94980987FD12
:100E20000AC000933F0107C040E062E070E08DEE31
:100E300091E00E9424038FB7F894409137015091BC
:100E400038016091390170913A018FBF80913B0167
:100E500090913C01A0913D01B0913E018C599F4F72
:100E6000AF4FBF4F84179507A607B70708F0E2C03A
:100E700010937C0080917A00806480937A00809146
:100E80007A0086FDFCCFC091780080917900D0E097
:100E9000D82B2FB7F8948091370190913801A09109
:100EA0003901B0913A012FBF80933B0190933C01EF
:100EB000A0933D01B0933E01A7019601C701B60181
:100EC0000E940A0A882319F080E291E01AC02601E4
:100ED0003701E89477F82FEF3FEF4FE75FE7C30163
:100EE000B2010E940A0A81110FC02FEF3FEF4FE7B6
:100EF0005FE7C301B2010E94B20818162CF484E225
:100F000091E00E94B50372C02FEF3FEF4FE75FE41F
:100F1000C701B6010E94980918161CF488E291E0F6
:100F2000F0CF2FEF3FEF4FE75FECC701B6010E9414
:100F3000B20887FDF3CF20E030E0A901C701B60178
:100F40000E94B20887FF07C08DE20E948C00F7FA6A
:100F5000F094F7F8F0942AE037ED43EA5BE3C70139
:100F6000B6010E9446082B013C010E94B7086B01A4
:100F70007C010E94E6089B01AC01C301B2010E9402
:100F800045082B013C014AE0C701B6010E94C70396
:100F90008EE20E948C0020E030E040E251E4C30188
:100FA000B2010E949D096B017C010E94B7082B01D0
:100FB000612C712C4AE0C301B2010E94C703C30136
:100FC000B2010E94E6089B01AC01C701B6010E9474
:100FD000450820E030E040E251E40E949D090E9473
:100FE000B70880E090E04AE00E94C7038CE291E0FD
:100FF0000E94B503C501B4010E9408048CE291E08F
:101000000E94B503BE01DD0F880B990B0E940804F6
:101010008CE291E00E94B50360913B0170913C012C
:1010200080913D0190913E010E9408048EE291E082
:101030000E94B5030E948401ABCEA1E21A2EAA1B26
:10104000BB1BFD010DC0AA1FBB1FEE1FFF1FA21778
:10105000B307E407F50720F0A21BB30BE40BF50B75
:10106000661F771F881F991F1A9469F760957095FE
:10107000809590959B01AC01BD01CF010895EE0FC5
:10108000FF1F0590F491E02D09945058BB27AA2723
:101090000E945D080C945E090E94500938F00E947D
:1010A000570920F039F49F3F19F426F40C944D09A8
:1010B0000EF4E095E7FB0C944709E92F0E946F09B5
:1010C00058F3BA17620773078407950720F079F47D
:1010D000A6F50C9491090EF4E0950B2EBA2FA02DD5
:1010E0000B01B90190010C01CA01A0011124FF27D5
:1010F000591B99F0593F50F4503E68F11A16F040D0
:10110000A22F232F342F4427585FF3CF46953795CE
:101110002795A795F0405395C9F77EF41F16BA0B93
:10112000620B730B840BBAF09150A1F0FF0FBB1F41
:10113000661F771F881FC2F70EC0BA0F621F731F8A
:10114000841F48F4879577956795B795F7959E3FE7
:1011500008F0B0CF9395880F08F09927EE0F979578
:10116000879508950E94230908F481E008950E945C
:10117000770988F09F5798F0B92F9927B751B0F0A9
:10118000E1F0660F771F881F991F1AF0BA95C9F70B
:1011900014C0B13091F00E949109B1E008950C940F
:1011A0009109672F782F8827B85F39F0B93FCCF3C2
:1011B000869577956795B395D9F73EF49095809588
:1011C000709561957F4F8F4F9F4F0895E89409C0A8
:1011D00097FB3EF490958095709561957F4F8F4F6A
:1011E0009F4F9923A9F0F92F96E9BB279395F69580
:1011F000879577956795B795F111F8CFFAF4BB0FFE
:1012000011F460FF1BC06F5F7F4F8F4F9F4F16C061
:10121000882311F096E911C0772321F09EE8872FEB
:10122000762F05C0662371F096E8862F70E060E0A7
:101230002AF09A95660F771F881FDAF7880F969520
:10124000879597F90895990F0008550FAA0BE0E8C4
:10125000FEEF16161706E807F907C0F01216130678
:10126000E407F50798F0621B730B840B950B39F4B8
:101270000A2661F0232B242B252B21F408950A261E
:1012800009F4A140A6958FEF811D811D089597F95E
:101290009F6780E870E060E008959FEF80EC08951C
:1012A00000240A9416161706180609060895002445
:1012B0000A9412161306140605060895092E0394BF
:1012C000000C11F4882352F0BB0F40F4BF2B11F433
:1012D00060FF04C06F5F7F4F8F4F9F4F089557FD92
:1012E0009058440F551F59F05F3F71F04795880F94
:1012F00097FB991F61F09F3F79F08795089512162B
:1013000013061406551FF2CF4695F1DF08C01616D6
:1013100017061806991FF1CF869571056105089487
:101320000895E894BB2766277727CB0197F908959E
:101330000E94230908F48FEF08950E94B0090C94CD
:101340005E090E94500938F00E94570920F0952349
:1013500011F00C9447090C944D0911240C94920936
:101360000E946F0970F3959FC1F3950F50E0551FD0
:10137000629FF001729FBB27F00DB11D639FAA27EA
:10138000F00DB11DAA1F649F6627B00DA11D661F39
:10139000829F2227B00DA11D621F739FB00DA11D5A
:1013A000621F839FA00D611D221F749F3327A00D14
:1013B000611D231F849F600D211D822F762F6A2FB0
:1013C00011249F5750409AF0F1F088234AF0EE0F15
:1013D000FF1FBB1F661F771F881F91505040A9F742
:1013E0009E3F510580F00C9447090C9492095F3F91
:1013F000E4F3983ED4F3869577956795B795F7957E
:10140000E7959F5FC1F7FE2B880F911D96958795F5
:1014100097F908950E942309880B990B089581E09C
:0C14200090E0F8940C94140AF894FFCFAC
:10142C00D402D402000000001B019700E400C200AB
:10143C00D6006201000000003204000000005303DB
:10144C006E616E00696E66006F7666002C000D0A88
:02145C0000008E
:00000001FF
